{
  "contractName": "TTT",
  "abi": [
    {
      "constant": true,
      "inputs": [
        {
          "name": "",
          "type": "address"
        }
      ],
      "name": "pendingReturns",
      "outputs": [
        {
          "name": "",
          "type": "uint256"
        }
      ],
      "payable": false,
      "stateMutability": "view",
      "type": "function"
    },
    {
      "constant": true,
      "inputs": [],
      "name": "pFee",
      "outputs": [
        {
          "name": "",
          "type": "uint256"
        }
      ],
      "payable": false,
      "stateMutability": "view",
      "type": "function"
    },
    {
      "inputs": [
        {
          "name": "_pFee",
          "type": "uint256"
        }
      ],
      "payable": false,
      "stateMutability": "nonpayable",
      "type": "constructor"
    },
    {
      "constant": false,
      "inputs": [],
      "name": "register",
      "outputs": [],
      "payable": true,
      "stateMutability": "payable",
      "type": "function"
    },
    {
      "constant": false,
      "inputs": [
        {
          "name": "position",
          "type": "uint256"
        }
      ],
      "name": "move",
      "outputs": [
        {
          "name": "",
          "type": "string"
        }
      ],
      "payable": false,
      "stateMutability": "nonpayable",
      "type": "function"
    },
    {
      "constant": false,
      "inputs": [],
      "name": "c_winner",
      "outputs": [
        {
          "name": "",
          "type": "uint256"
        }
      ],
      "payable": false,
      "stateMutability": "nonpayable",
      "type": "function"
    },
    {
      "constant": false,
      "inputs": [],
      "name": "withdraw",
      "outputs": [
        {
          "name": "",
          "type": "bool"
        }
      ],
      "payable": false,
      "stateMutability": "nonpayable",
      "type": "function"
    },
    {
      "constant": false,
      "inputs": [],
      "name": "get_current_state",
      "outputs": [
        {
          "name": "",
          "type": "string"
        },
        {
          "name": "",
          "type": "string"
        },
        {
          "name": "",
          "type": "string"
        },
        {
          "name": "",
          "type": "string"
        }
      ],
      "payable": false,
      "stateMutability": "nonpayable",
      "type": "function"
    }
  ],
  "bytecode": "0x60806040526009604051908082528060200260200182016040528015620000355781602001602082028038833980820191505090505b50600090805190602001906200004d9291906200025e565b506000600455600060055561010060405190810160405280606060405190810160405280600060ff168152602001600160ff168152602001600260ff168152508152602001606060405190810160405280600360ff168152602001600460ff168152602001600560ff168152508152602001606060405190810160405280600660ff168152602001600760ff168152602001600860ff168152508152602001606060405190810160405280600060ff168152602001600360ff168152602001600660ff168152508152602001606060405190810160405280600160ff168152602001600460ff168152602001600760ff168152508152602001606060405190810160405280600260ff168152602001600560ff168152602001600860ff168152508152602001606060405190810160405280600060ff168152602001600460ff168152602001600860ff168152508152602001606060405190810160405280600260ff168152602001600460ff168152602001600660ff168152508152506007906008620001dd929190620002b0565b50348015620001eb57600080fd5b50604051602080620016548339810180604052810190808051906020019092919050505033600360006101000a81548173ffffffffffffffffffffffffffffffffffffffff021916908373ffffffffffffffffffffffffffffffffffffffff1602179055508060088190555050620003e5565b8280548282559060005260206000209081019282156200029d579160200282015b828111156200029c5782518255916020019190600101906200027f565b5b509050620002ac919062000312565b5090565b828054828255906000526020600020908101928215620002ff579160200282015b82811115620002fe57825182906003620002ed9291906200033a565b5091602001919060010190620002d1565b5b5090506200030e919062000391565b5090565b6200033791905b808211156200033357600081600090555060010162000319565b5090565b90565b8280548282559060005260206000209081019282156200037e579160200282015b828111156200037d578251829060ff169055916020019190600101906200035b565b5b5090506200038d919062000312565b5090565b620003bf91905b80821115620003bb5760008181620003b19190620003c2565b5060010162000398565b5090565b90565b5080546000825590600052602060002090810190620003e2919062000312565b50565b61125f80620003f56000396000f300608060405260043610610083576000357c0100000000000000000000000000000000000000000000000000000000900463ffffffff1680631aa3a0081461008857806326b387bb146100925780633ccfd60b146100e957806360c591461461011857806387cb15f714610143578063ba8f8131146101e9578063c26352b9146103bd575b600080fd5b6100906103e8565b005b34801561009e57600080fd5b506100d3600480360381019080803573ffffffffffffffffffffffffffffffffffffffff1690602001909291905050506106a6565b6040518082815260200191505060405180910390f35b3480156100f557600080fd5b506100fe6106be565b604051808215151515815260200191505060405180910390f35b34801561012457600080fd5b5061012d6107a1565b6040518082815260200191505060405180910390f35b34801561014f57600080fd5b5061016e600480360381019080803590602001909291905050506107a7565b6040518080602001828103825283818151815260200191508051906020019080838360005b838110156101ae578082015181840152602081019050610193565b50505050905090810190601f1680156101db5780820380516001836020036101000a031916815260200191505b509250505060405180910390f35b3480156101f557600080fd5b506101fe610b33565b6040518080602001806020018060200180602001858103855289818151815260200191508051906020019080838360005b8381101561024a57808201518184015260208101905061022f565b50505050905090810190601f1680156102775780820380516001836020036101000a031916815260200191505b50858103845288818151815260200191508051906020019080838360005b838110156102b0578082015181840152602081019050610295565b50505050905090810190601f1680156102dd5780820380516001836020036101000a031916815260200191505b50858103835287818151815260200191508051906020019080838360005b838110156103165780820151818401526020810190506102fb565b50505050905090810190601f1680156103435780820380516001836020036101000a031916815260200191505b50858103825286818151815260200191508051906020019080838360005b8381101561037c578082015181840152602081019050610361565b50505050905090810190601f1680156103a95780820380516001836020036101000a031916815260200191505b509850505050505050505060405180910390f35b3480156103c957600080fd5b506103d2611052565b6040518082815260200191505060405180910390f35b60085434111515610461576040517f08c379a00000000000000000000000000000000000000000000000000000000081526004018080602001828103825260178152602001807f496e73756666696369656e742066756e64732073656e7400000000000000000081525060200191505060405180910390fd5b60026005541015156104db576040517f08c379a00000000000000000000000000000000000000000000000000000000081526004018080602001828103825260108152602001807f43616e206e6f742072656769737465720000000000000000000000000000000081525060200191505060405180910390fd5b6000600660003373ffffffffffffffffffffffffffffffffffffffff1673ffffffffffffffffffffffffffffffffffffffff168152602001908152602001600020541415156105b8576040517f08c379a00000000000000000000000000000000000000000000000000000000081526004018080602001828103825260298152602001807f596f75206861766520616c7265616479207265676973746572656420666f722081526020017f74686973207175697a000000000000000000000000000000000000000000000081525060400191505060405180910390fd5b33600160056000815480929190600101919050556002811015156105d857fe5b0160006101000a81548173ffffffffffffffffffffffffffffffffffffffff021916908373ffffffffffffffffffffffffffffffffffffffff1602179055506001600660003373ffffffffffffffffffffffffffffffffffffffff1673ffffffffffffffffffffffffffffffffffffffff168152602001908152602001600020819055506008543403600960003373ffffffffffffffffffffffffffffffffffffffff1673ffffffffffffffffffffffffffffffffffffffff16815260200190815260200160002081905550565b60096020528060005260406000206000915090505481565b600080600960003373ffffffffffffffffffffffffffffffffffffffff1673ffffffffffffffffffffffffffffffffffffffff1681526020019081526020016000205490506000811115610799576000600960003373ffffffffffffffffffffffffffffffffffffffff1673ffffffffffffffffffffffffffffffffffffffff168152602001908152602001600020819055503373ffffffffffffffffffffffffffffffffffffffff166108fc829081150290604051600060405180830381858888f19350505050158015610797573d6000803e3d6000fd5b505b600191505090565b60085481565b606060006107b3611052565b9050600181141561082257606060405190810160405280602481526020017f47616d6520697320757020616e6420706c61796572203120776f6e207468652081526020017f67616d65000000000000000000000000000000000000000000000000000000008152509150610b2d565b600281141561088f57606060405190810160405280602481526020017f47616d6520697320757020616e6420706c61796572203220776f6e207468652081526020017f67616d65000000000000000000000000000000000000000000000000000000008152509150610b2d565b6000600454141561093e573373ffffffffffffffffffffffffffffffffffffffff16600160006002811015156108c157fe5b0160009054906101000a900473ffffffffffffffffffffffffffffffffffffffff1673ffffffffffffffffffffffffffffffffffffffff1614151561093d576040805190810160405280601b81526020017f536f7272792074686973206973206e6f7420796f7572207475726e00000000008152509150610b2d565b5b600160045414156109ec573373ffffffffffffffffffffffffffffffffffffffff1660018060028110151561096f57fe5b0160009054906101000a900473ffffffffffffffffffffffffffffffffffffffff1673ffffffffffffffffffffffffffffffffffffffff161415156109eb576040805190810160405280601b81526020017f536f7272792074686973206973206e6f7420796f7572207475726e00000000008152509150610b2d565b5b600083101580156109fe575060088311155b15610af45760008084815481101515610a1357fe5b90600052602060002001541415610ab757600160045401600084815481101515610a3957fe5b9060005260206000200181905550600454600103600481905550606060405190810160405280602881526020017f596f75206861766520706c61636564206174207468652072657175697265642081526020017f706f736974696f6e0000000000000000000000000000000000000000000000008152509150610b2d565b6040805190810160405280601f81526020017f5468697320706f736974696f6e20697320616c72656164792066696c6c6564008152509150610b2d565b6040805190810160405280601f81526020017f506c656173652070726f7669646520612076616c696420706f736974696f6e0081525091505b50919050565b60608060608060606000606080600060608060206040519081016040528060008152509650610b60611052565b95506001861415610ba8576040805190810160405280601681526020017f506c617965722031206973207468652077696e6e6572000000000000000000008152509650610c28565b6002861415610bee576040805190810160405280601681526020017f506c617965722032206973207468652077696e6e6572000000000000000000008152509650610c27565b6040805190810160405280601b81526020017f4e6f206f6e652068617320776f6e207468652067616d6520796574000000000081525096505b5b60046040519080825280601f01601f191660200182016040528015610c5c5781602001602082028038833980820191505090505b5094506003604051908082528060200260200182016040528015610c8f5781602001602082028038833980820191505090505b5093507f2d00000000000000000000000000000000000000000000000000000000000000846000815181101515610cc257fe5b906020019060200201907effffffffffffffffffffffffffffffffffffffffffffffffffffffffffffff191690817effffffffffffffffffffffffffffffffffffffffffffffffffffffffffffff1916815250507f3100000000000000000000000000000000000000000000000000000000000000846001815181101515610d4657fe5b906020019060200201907effffffffffffffffffffffffffffffffffffffffffffffffffffffffffffff191690817effffffffffffffffffffffffffffffffffffffffffffffffffffffffffffff1916815250507f3200000000000000000000000000000000000000000000000000000000000000846002815181101515610dca57fe5b906020019060200201907effffffffffffffffffffffffffffffffffffffffffffffffffffffffffffff191690817effffffffffffffffffffffffffffffffffffffffffffffffffffffffffffff191681525050600092505b6003831015610ea85783600084815481101515610e3c57fe5b9060005260206000200154815181101515610e5357fe5b906020019060200201518584815181101515610e6b57fe5b9060200101907effffffffffffffffffffffffffffffffffffffffffffffffffffffffffffff1916908160001a9053508280600101935050610e23565b60046040519080825280601f01601f191660200182016040528015610edc5781602001602082028038833980820191505090505b509150600092505b6003831015610f6c5783600060038501815481101515610f0057fe5b9060005260206000200154815181101515610f1757fe5b906020019060200201518284815181101515610f2f57fe5b9060200101907effffffffffffffffffffffffffffffffffffffffffffffffffffffffffffff1916908160001a9053508280600101935050610ee4565b60046040519080825280601f01601f191660200182016040528015610fa05781602001602082028038833980820191505090505b509050600092505b60038310156110305783600060068501815481101515610fc457fe5b9060005260206000200154815181101515610fdb57fe5b906020019060200201518184815181101515610ff357fe5b9060200101907effffffffffffffffffffffffffffffffffffffffffffffffffffffffffffff1916908160001a9053508280600101935050610fa8565b868583838292508191508090509a509a509a509a505050505050505090919293565b6000806060600091505b60088210156112295760078281548110151561107457fe5b906000526020600020018054806020026020016040519081016040528092919081815260200182805480156110c857602002820191906000526020600020905b8154815260200190600101908083116110b4575b505050505090506000808260008151811015156110e157fe5b906020019060200201518154811015156110f757fe5b9060005260206000200154141580156111715750600081600181518110151561111c57fe5b9060200190602002015181548110151561113257fe5b9060005260206000200154600082600081518110151561114e57fe5b9060200190602002015181548110151561116457fe5b9060005260206000200154145b80156111de5750600081600281518110151561118957fe5b9060200190602002015181548110151561119f57fe5b906000526020600020015460008260018151811015156111bb57fe5b906020019060200201518154811015156111d157fe5b9060005260206000200154145b1561121c5760008160008151811015156111f457fe5b9060200190602002015181548110151561120a57fe5b9060005260206000200154925061122e565b818060010192505061105c565b600092505b5050905600a165627a7a72305820091fa0c1296cab7660dbd3d3ce891d6d6ce1e5fbdb6fcaf7b94c2c0eb51767b80029",
  "source": "pragma solidity ^0.4.24;\n\ncontract TTT {\n    uint[] board = new uint[](9);\n    address[2] players;\n    address moderator;\n    uint turn = 0;\n    uint num_players = 0;\n    mapping(address => uint) is_player;\n    uint[][]  tests = [[0,1,2],[3,4,5],[6,7,8], [0,3,6],[1,4,7],[2,5,8], [0,4,8],[2,4,6]];\n    uint public pFee;\n    mapping(address => uint256) public pendingReturns;\n\n    constructor(uint _pFee){\n        moderator = msg.sender;\n        pFee = _pFee;\n    }\n\n    function register()\n    public\n    payable\n    {\n        require(msg.value > pFee, \"Insufficient funds sent\");\n        require(num_players < 2, \"Can not register\");\n        require(is_player[msg.sender] == 0, \"You have already registered for this quiz\");\n        players[num_players++] = msg.sender;\n        is_player[msg.sender] = 1;\n        pendingReturns[msg.sender] = msg.value - pFee;\n    }\n\n\n    function move(uint position)\n    returns\n    (string)\n    {\n        uint winner = c_winner();\n        if(winner == 1){\n            return \"Game is up and player 1 won the game\";\n        }\n        else if(winner == 2){\n            return \"Game is up and player 2 won the game\";\n        }\n        if(turn == 0){\n            if(players[0] != msg.sender){\n                return \"Sorry this is not your turn\";\n            }\n        }\n        if(turn == 1){\n            if(players[1] != msg.sender){\n                return \"Sorry this is not your turn\";\n            }\n        }\n        if(position >= 0 && position <= 8){\n            if(board[position] == 0){\n                board[position] = turn+1;\n                turn = 1 - turn;\n                return \"You have placed at the required position\";\n            }\n            else{\n                return \"This position is already filled\";\n            }\n        }\n        else{\n            return \"Please provide a valid position\";\n        }\n    }\n\n    function c_winner()\n    returns\n    (uint)\n    {\n        for(uint i = 0;i < 8; i++){\n            uint[] memory m = tests[i];\n            if(board[m[0]] != 0 && board[m[0]] == board[m[1]] && board[m[1]] == board[m[2]])\n                return board[m[0]];\n        }\n        return 0;\n    }\n\n    /* Player withdraws his winnnings, if any */\n    function withdraw()\n    public\n    returns (bool)\n    {\n        uint256 amount = pendingReturns[msg.sender];\n        if (amount > 0)\n        {\n            pendingReturns[msg.sender] = 0;\n            msg.sender.transfer(amount);\n        }\n        return true;\n    }\n\n    function get_current_state()\n    returns\n    (string, string, string, string)\n    {\n        string memory ret = \"\";\n        uint winner = c_winner();\n        if(winner == 1){\n            ret = \"Player 1 is the winner\";\n        }\n        else if(winner == 2){\n            ret = \"Player 2 is the winner\";\n        }\n        else{\n            ret = \"No one has won the game yet\";\n        }\n        bytes memory a = new bytes(4);\n        byte[] memory signs = new byte[](3);\n            signs[0] = \"-\";\n            signs[1] = \"1\";\n            signs[2] = \"2\";\n        for(uint i = 0; i < 3; i++){\n            bytes(a)[i] = signs[board[i]];\n        }\n        bytes memory b = new bytes(4);\n        for(i = 0; i < 3; i++){\n            bytes(b)[i] = signs[board[i+3]];\n        }\n        bytes memory c = new bytes(4);\n        for(i = 0; i < 3; i++){\n            bytes(c)[i] = signs[board[i+6]];\n        }\n        return (ret, string(a), string(b), string(c));\n    }\n\n}\n",
  "sourcePath": "/home/anishg/Downloads/block_chains/tictactoe/tictactoe/contracts/TTT.sol",
  "compiler": {
    "name": "solc",
    "version": "0.4.24+commit.e67f0147.Emscripten.clang"
  },
  "schemaVersion": "2.0.1",
  "updatedAt": "2018-11-09T05:26:30.103Z"
}